{
  "_format": "hh-sol-artifact-1",
  "contractName": "IndexSwap",
  "sourceName": "contracts/DeFiPortfolio.sol",
  "abi": [
    {
      "inputs": [
        {
          "internalType": "address",
          "name": "_oracal",
          "type": "address"
        },
        {
          "internalType": "address",
          "name": "_outAssest",
          "type": "address"
        },
        {
          "internalType": "address",
          "name": "_pancakeSwapAddress",
          "type": "address"
        },
        {
          "internalType": "address",
          "name": "_vault",
          "type": "address"
        }
      ],
      "stateMutability": "nonpayable",
      "type": "constructor"
    },
    {
      "anonymous": false,
      "inputs": [
        {
          "indexed": true,
          "internalType": "address",
          "name": "owner",
          "type": "address"
        },
        {
          "indexed": true,
          "internalType": "address",
          "name": "spender",
          "type": "address"
        },
        {
          "indexed": false,
          "internalType": "uint256",
          "name": "value",
          "type": "uint256"
        }
      ],
      "name": "Approval",
      "type": "event"
    },
    {
      "anonymous": false,
      "inputs": [],
      "name": "LOG_PUBLIC_SWAP_ENABLED",
      "type": "event"
    },
    {
      "anonymous": false,
      "inputs": [
        {
          "indexed": true,
          "internalType": "address",
          "name": "previousOwner",
          "type": "address"
        },
        {
          "indexed": true,
          "internalType": "address",
          "name": "newOwner",
          "type": "address"
        }
      ],
      "name": "OwnershipTransferred",
      "type": "event"
    },
    {
      "anonymous": false,
      "inputs": [
        {
          "indexed": true,
          "internalType": "address",
          "name": "from",
          "type": "address"
        },
        {
          "indexed": true,
          "internalType": "address",
          "name": "to",
          "type": "address"
        },
        {
          "indexed": false,
          "internalType": "uint256",
          "name": "value",
          "type": "uint256"
        }
      ],
      "name": "Transfer",
      "type": "event"
    },
    {
      "inputs": [],
      "name": "VERSION_NUMBER",
      "outputs": [
        {
          "internalType": "uint256",
          "name": "",
          "type": "uint256"
        }
      ],
      "stateMutability": "view",
      "type": "function"
    },
    {
      "inputs": [
        {
          "internalType": "address",
          "name": "owner",
          "type": "address"
        },
        {
          "internalType": "address",
          "name": "spender",
          "type": "address"
        }
      ],
      "name": "allowance",
      "outputs": [
        {
          "internalType": "uint256",
          "name": "",
          "type": "uint256"
        }
      ],
      "stateMutability": "view",
      "type": "function"
    },
    {
      "inputs": [
        {
          "internalType": "address",
          "name": "spender",
          "type": "address"
        },
        {
          "internalType": "uint256",
          "name": "amount",
          "type": "uint256"
        }
      ],
      "name": "approve",
      "outputs": [
        {
          "internalType": "bool",
          "name": "",
          "type": "bool"
        }
      ],
      "stateMutability": "nonpayable",
      "type": "function"
    },
    {
      "inputs": [
        {
          "internalType": "address",
          "name": "account",
          "type": "address"
        }
      ],
      "name": "balanceOf",
      "outputs": [
        {
          "internalType": "uint256",
          "name": "",
          "type": "uint256"
        }
      ],
      "stateMutability": "view",
      "type": "function"
    },
    {
      "inputs": [
        {
          "internalType": "uint256",
          "name": "amount",
          "type": "uint256"
        }
      ],
      "name": "burn",
      "outputs": [],
      "stateMutability": "nonpayable",
      "type": "function"
    },
    {
      "inputs": [
        {
          "internalType": "address",
          "name": "account",
          "type": "address"
        },
        {
          "internalType": "uint256",
          "name": "amount",
          "type": "uint256"
        }
      ],
      "name": "burnFrom",
      "outputs": [],
      "stateMutability": "nonpayable",
      "type": "function"
    },
    {
      "inputs": [],
      "name": "currentRate",
      "outputs": [
        {
          "internalType": "uint256",
          "name": "numerator",
          "type": "uint256"
        },
        {
          "internalType": "uint256",
          "name": "denominator",
          "type": "uint256"
        }
      ],
      "stateMutability": "view",
      "type": "function"
    },
    {
      "inputs": [],
      "name": "decimals",
      "outputs": [
        {
          "internalType": "uint8",
          "name": "",
          "type": "uint8"
        }
      ],
      "stateMutability": "view",
      "type": "function"
    },
    {
      "inputs": [
        {
          "internalType": "address",
          "name": "spender",
          "type": "address"
        },
        {
          "internalType": "uint256",
          "name": "subtractedValue",
          "type": "uint256"
        }
      ],
      "name": "decreaseAllowance",
      "outputs": [
        {
          "internalType": "bool",
          "name": "",
          "type": "bool"
        }
      ],
      "stateMutability": "nonpayable",
      "type": "function"
    },
    {
      "inputs": [],
      "name": "getETH",
      "outputs": [
        {
          "internalType": "address",
          "name": "",
          "type": "address"
        }
      ],
      "stateMutability": "view",
      "type": "function"
    },
    {
      "inputs": [
        {
          "internalType": "address",
          "name": "crypto",
          "type": "address"
        }
      ],
      "name": "getPathForETH",
      "outputs": [
        {
          "internalType": "address[]",
          "name": "",
          "type": "address[]"
        }
      ],
      "stateMutability": "view",
      "type": "function"
    },
    {
      "inputs": [
        {
          "internalType": "address",
          "name": "token",
          "type": "address"
        }
      ],
      "name": "getPathForToken",
      "outputs": [
        {
          "internalType": "address[]",
          "name": "",
          "type": "address[]"
        }
      ],
      "stateMutability": "view",
      "type": "function"
    },
    {
      "inputs": [
        {
          "internalType": "address",
          "name": "spender",
          "type": "address"
        },
        {
          "internalType": "uint256",
          "name": "addedValue",
          "type": "uint256"
        }
      ],
      "name": "increaseAllowance",
      "outputs": [
        {
          "internalType": "bool",
          "name": "",
          "type": "bool"
        }
      ],
      "stateMutability": "nonpayable",
      "type": "function"
    },
    {
      "inputs": [],
      "name": "indexPrice",
      "outputs": [
        {
          "internalType": "uint256",
          "name": "",
          "type": "uint256"
        }
      ],
      "stateMutability": "view",
      "type": "function"
    },
    {
      "inputs": [
        {
          "internalType": "address[]",
          "name": "tokens",
          "type": "address[]"
        },
        {
          "internalType": "uint96[]",
          "name": "denorms",
          "type": "uint96[]"
        }
      ],
      "name": "initialize",
      "outputs": [],
      "stateMutability": "nonpayable",
      "type": "function"
    },
    {
      "inputs": [],
      "name": "initializeDefult",
      "outputs": [],
      "stateMutability": "nonpayable",
      "type": "function"
    },
    {
      "inputs": [
        {
          "internalType": "uint256",
          "name": "cryptoAmount",
          "type": "uint256"
        }
      ],
      "name": "investInFund",
      "outputs": [],
      "stateMutability": "payable",
      "type": "function"
    },
    {
      "inputs": [],
      "name": "investedAmountAfterSlippage",
      "outputs": [
        {
          "internalType": "uint256",
          "name": "",
          "type": "uint256"
        }
      ],
      "stateMutability": "view",
      "type": "function"
    },
    {
      "inputs": [],
      "name": "name",
      "outputs": [
        {
          "internalType": "string",
          "name": "",
          "type": "string"
        }
      ],
      "stateMutability": "view",
      "type": "function"
    },
    {
      "inputs": [],
      "name": "owner",
      "outputs": [
        {
          "internalType": "address",
          "name": "",
          "type": "address"
        }
      ],
      "stateMutability": "view",
      "type": "function"
    },
    {
      "inputs": [],
      "name": "pancakeSwapRouter",
      "outputs": [
        {
          "internalType": "contract IUniswapV2Router02",
          "name": "",
          "type": "address"
        }
      ],
      "stateMutability": "view",
      "type": "function"
    },
    {
      "inputs": [],
      "name": "renounceOwnership",
      "outputs": [],
      "stateMutability": "nonpayable",
      "type": "function"
    },
    {
      "inputs": [],
      "name": "symbol",
      "outputs": [
        {
          "internalType": "string",
          "name": "",
          "type": "string"
        }
      ],
      "stateMutability": "view",
      "type": "function"
    },
    {
      "inputs": [],
      "name": "totalSupply",
      "outputs": [
        {
          "internalType": "uint256",
          "name": "",
          "type": "uint256"
        }
      ],
      "stateMutability": "view",
      "type": "function"
    },
    {
      "inputs": [
        {
          "internalType": "address",
          "name": "to",
          "type": "address"
        },
        {
          "internalType": "uint256",
          "name": "amount",
          "type": "uint256"
        }
      ],
      "name": "transfer",
      "outputs": [
        {
          "internalType": "bool",
          "name": "",
          "type": "bool"
        }
      ],
      "stateMutability": "nonpayable",
      "type": "function"
    },
    {
      "inputs": [
        {
          "internalType": "address",
          "name": "from",
          "type": "address"
        },
        {
          "internalType": "address",
          "name": "to",
          "type": "address"
        },
        {
          "internalType": "uint256",
          "name": "amount",
          "type": "uint256"
        }
      ],
      "name": "transferFrom",
      "outputs": [
        {
          "internalType": "bool",
          "name": "",
          "type": "bool"
        }
      ],
      "stateMutability": "nonpayable",
      "type": "function"
    },
    {
      "inputs": [
        {
          "internalType": "address",
          "name": "newOwner",
          "type": "address"
        }
      ],
      "name": "transferOwnership",
      "outputs": [],
      "stateMutability": "nonpayable",
      "type": "function"
    },
    {
      "inputs": [
        {
          "internalType": "uint256",
          "name": "_numerator",
          "type": "uint256"
        },
        {
          "internalType": "uint256",
          "name": "_denominator",
          "type": "uint256"
        }
      ],
      "name": "updateRate",
      "outputs": [],
      "stateMutability": "nonpayable",
      "type": "function"
    },
    {
      "inputs": [],
      "name": "vaultBalance",
      "outputs": [
        {
          "internalType": "uint256",
          "name": "",
          "type": "uint256"
        }
      ],
      "stateMutability": "view",
      "type": "function"
    },
    {
      "inputs": [
        {
          "internalType": "uint256",
          "name": "tokenAmount",
          "type": "uint256"
        }
      ],
      "name": "withdrawFromFundNew",
      "outputs": [],
      "stateMutability": "payable",
      "type": "function"
    },
    {
      "stateMutability": "payable",
      "type": "receive"
    }
  ],
  "bytecode": "0x610120604052736f7c932e7684666c9fd1d44527765433e01ff61d608090815273b33eaad8d922b1083446dc23f610c2567fb5180f60a0527353e0bca35ec356bd5dddfebbd1fc0fd03fabad3960c05273d6df932a45c0f255f85145f286ea0b292b21c90b60e052738505b9d2254a7ae468c0e9dd10ccea3a837aef5c61010052620000909060099060056200022a565b506040805160a081018252600180825260208201819052918101829052606081018290526080810191909152620000cc90600e90600562000287565b50348015620000da57600080fd5b5060405162002cb238038062002cb2833981016040819052620000fd91620003d9565b60405180604001604052806007815260200166494e4445584c5960c81b8152506040518060400160405280600381526020016209288b60eb1b81525081600390805190602001906200015192919062000328565b5080516200016790600490602084019062000328565b505050620001846200017e620001d460201b60201c565b620001d8565b600680546001600160a01b03199081166001600160a01b039485161790915560198054821695841695909517909455600880548516918316919091179055601a8054909316911617905562000473565b3390565b600580546001600160a01b038381166001600160a01b0319831681179093556040519116919082907f8be0079c531659141344cd1fd0a4f28419497f9722a3daafe3b4186f6b6457e090600090a35050565b826005810192821562000275579160200282015b828111156200027557825182546001600160a01b0319166001600160a01b039091161782556020909201916001909101906200023e565b5062000283929150620003a5565b5090565b600383019183908215620002755791602002820160005b83821115620002e457835183826101000a8154816001600160601b03021916908360ff1602179055509260200192600c01602081600b010492830192600103026200029e565b8015620003195782816101000a8154906001600160601b030219169055600c01602081600b01049283019260010302620002e4565b505062000283929150620003a5565b828054620003369062000436565b90600052602060002090601f0160209004810192826200035a576000855562000275565b82601f106200037557805160ff191683800117855562000275565b8280016001018555821562000275579182015b828111156200027557825182559160200191906001019062000388565b5b80821115620002835760008155600101620003a6565b80516001600160a01b0381168114620003d457600080fd5b919050565b60008060008060808587031215620003f057600080fd5b620003fb85620003bc565b93506200040b60208601620003bc565b92506200041b60408601620003bc565b91506200042b60608601620003bc565b905092959194509250565b600181811c908216806200044b57607f821691505b602082108114156200046d57634e487b7160e01b600052602260045260246000fd5b50919050565b61282f80620004836000396000f3fe6080604052600436106101d15760003560e01c806370a08231116100f757806395d89b4111610095578063ca0e7ed511610064578063ca0e7ed514610503578063dd62ed3e14610523578063f2fde38b14610543578063f9f8bdb71461056357600080fd5b806395d89b4114610481578063a457c2d714610496578063a9059cbb146104b6578063b0849c1c146104d657600080fd5b80638025e303116100d15780638025e3031461041b57806381a8e605146104305780638da5cb5b14610443578063955a333b1461046157600080fd5b806370a08231146103b0578063715018a6146103e657806379cc6790146103fb57600080fd5b806323b872dd1161016f578063395093511161013e578063395093511461033d578063405abb411461035d57806342966c681461037d5780635bab42a11461039d57600080fd5b806323b872dd146102cb57806324558995146102eb578063313ce5671461030b578063377d8f0a1461032757600080fd5b80630c2cd2cd116101ab5780630c2cd2cd1461025c57806310bace8c1461027357806314f6c3be1461028957806318160ddd146102b657600080fd5b806306fdde03146101dd578063095ea7b3146102085780630bf6cc081461023857600080fd5b366101d857005b600080fd5b3480156101e957600080fd5b506101f2610593565b6040516101ff919061229b565b60405180910390f35b34801561021457600080fd5b506102286102233660046122e3565b610625565b60405190151581526020016101ff565b34801561024457600080fd5b5061024e601c5481565b6040519081526020016101ff565b34801561026857600080fd5b5061027161063d565b005b34801561027f57600080fd5b5061024e60075481565b34801561029557600080fd5b5061029e6109aa565b6040516001600160a01b0390911681526020016101ff565b3480156102c257600080fd5b5060025461024e565b3480156102d757600080fd5b506102286102e636600461230f565b610a1d565b3480156102f757600080fd5b5060065461029e906001600160a01b031681565b34801561031757600080fd5b50604051601281526020016101ff565b34801561033357600080fd5b5061024e601b5481565b34801561034957600080fd5b506102286103583660046122e3565b610a41565b34801561036957600080fd5b50610271610378366004612350565b610a63565b34801561038957600080fd5b50610271610398366004612372565b610a82565b6102716103ab366004612372565b610a8f565b3480156103bc57600080fd5b5061024e6103cb36600461238b565b6001600160a01b031660009081526020819052604090205490565b3480156103f257600080fd5b5061027161111c565b34801561040757600080fd5b506102716104163660046122e3565b611152565b34801561042757600080fd5b5061024e600181565b61027161043e366004612372565b61116b565b34801561044f57600080fd5b506005546001600160a01b031661029e565b34801561046d57600080fd5b5061027161047c3660046123f4565b611368565b34801561048d57600080fd5b506101f261165d565b3480156104a257600080fd5b506102286104b13660046122e3565b61166c565b3480156104c257600080fd5b506102286104d13660046122e3565b6116e7565b3480156104e257600080fd5b506104f66104f136600461238b565b6116f5565b6040516101ff91906124a4565b34801561050f57600080fd5b506104f661051e36600461238b565b6117ec565b34801561052f57600080fd5b5061024e61053e3660046124b7565b6118b5565b34801561054f57600080fd5b5061027161055e36600461238b565b6118e0565b34801561056f57600080fd5b5060175460185461057e919082565b604080519283526020830191909152016101ff565b6060600380546105a2906124f0565b80601f01602080910402602001604051908101604052809291908181526020018280546105ce906124f0565b801561061b5780601f106105f05761010080835404028352916020019161061b565b820191906000526020600020905b8154815290600101906020018083116105fe57829003601f168201915b5050505050905090565b600033610633818585611978565b5060019392505050565b6005546001600160a01b031633146106705760405162461bcd60e51b81526004016106679061252b565b60405180910390fd5b6005600080805b8381101561095c576040805160c0810182526001815264ffffffffff42166020820152908101600e83600581106106b0576106b0612560565b60029182820401919006600c029054906101000a90046001600160601b03166001600160601b03168152602001600e83600581106106f0576106f0612560565b60029182820401919006600c029054906101000a90046001600160601b03166001600160601b031681526020018260ff1681526020016000815250601260006009846005811061074257610742612560565b01546001600160a01b0316815260208082019290925260409081016000208351815493850151928501516060860151608087015165ffffffffffff1990961692151565ffffffffff0019169290921761010064ffffffffff90951694909402939093176601000000000000600160f01b031916600160301b6001600160601b03948516026bffffffffffffffffffffffff60901b191617600160901b93909116929092029190911760ff60f01b1916600160f01b60ff9093169290920291909117815560a09091015160019091015560116009826005811061082657610826612560565b015481546001810183556000928352602083200180546001600160a01b0319166001600160a01b0392831617905560195460118054919092169163afa99860918590811061087657610876612560565b600091825260209091200154601a5460405160e084901b6001600160e01b03191681526001600160a01b03928316600482015291166024820152604401602060405180830381865afa1580156108d0573d6000803e3d6000fd5b505050506040513d601f19601f820116820180604052508101906108f49190612576565b90506109008382611a9d565b925061094684600e846005811061091957610919612560565b60029182820401919006600c029054906101000a90046001600160601b03166001600160601b0316611ab0565b9350508080610954906125a5565b915050610677565b50601382905561096c8184611b02565b6014556016805460ff191660011790556040517f183bed17d33ee5be9a47bb997aee6a152d84a34309cdb66f76301de0a40a138990600090a1505050565b600654604080516315ab88c960e31b815290516000926001600160a01b03169163ad5c46489160048083019260209291908290030181865afa1580156109f4573d6000803e3d6000fd5b505050506040513d601f19601f82011682018060405250810190610a1891906125c0565b905090565b600033610a2b858285611b0e565b610a36858585611b82565b506001949350505050565b600033610633818585610a5483836118b5565b610a5e91906125dd565b611978565b81610a6d57600080fd5b80610a7757600080fd5b601791909155601855565b610a8c3382611d50565b50565b6000601b819055601c556002543490829015610d235760115460005b81811015610cac57600060118281548110610ac857610ac8612560565b60009182526020822001546008546040516370a0823160e01b81526001600160a01b0391821660048201529116925082906370a0823190602401602060405180830381865afa158015610b1f573d6000803e3d6000fd5b505050506040513d601f19601f82011682018060405250810190610b439190612576565b601954601180549293506000926001600160a01b039092169163afa99860919087908110610b7357610b73612560565b600091825260209091200154601a5460405160e084901b6001600160e01b03191681526001600160a01b03928316600482015291166024820152604401602060405180830381865afa158015610bcd573d6000803e3d6000fd5b505050506040513d601f19601f82011682018060405250810190610bf19190612576565b90506000610bff8284611e96565b601e80546001810182556000919091527f50bb669a95c7b50b7e8a6f09454034b2b14cf2b85c730dca9a539ca82cb6e35001819055601c54909150610c449082611a9d565b601c819055610c955760405162461bcd60e51b815260206004820152601f60248201527f73756d207072696365206973206e6f742067726561746572207468616e2030006044820152606401610667565b505050508080610ca4906125a5565b915050610aab565b5060005b601154811015610d2057601d610cf8601c54610cf288601e8681548110610cd957610cd9612560565b9060005260206000200154611e9690919063ffffffff16565b90611b02565b8154600181018355600092835260209092209091015580610d18816125a5565b915050610cb0565b50505b6000610d3042600f6125dd565b905060005b601154811015610fe957600060118281548110610d5457610d54612560565b60009182526020808320909101546001600160a01b0316808352601282526040808420815160c081018352815460ff8082161515835264ffffffffff610100830416968301969096526001600160601b03600160301b8204811694830194909452600160901b81049093166060820152600160f01b90920490931660808201526001929092015460a0830152925090610dec60025490565b610e1d57610e16601354610cf284604001516001600160601b03168a611e9690919063ffffffff16565b9050610e3e565b601d8481548110610e3057610e30612560565b906000526020600020015490505b6006546060906001600160a01b0316637ff36ab5836000610e5e886116f5565b6008546040516001600160e01b031960e087901b168152610e8f9392916001600160a01b0316908d906004016125f5565b60006040518083038185885af1158015610ead573d6000803e3d6000fd5b50505050506040513d6000823e601f3d908101601f19168201604052610ed69190810190612640565b601954601180549293506000926001600160a01b039092169163afa99860919089908110610f0657610f06612560565b600091825260209091200154601a5460405160e084901b6001600160e01b03191681526001600160a01b03928316600482015291166024820152604401602060405180830381865afa158015610f60573d6000803e3d6000fd5b505050506040513d601f19601f82011682018060405250810190610f849190612576565b9050610fcb610fc2670de0b6b3a7640000610cf285600181518110610fab57610fab612560565b602002602001015185611e9690919063ffffffff16565b601b5490611a9d565b601b8190555050505050508080610fe1906125a5565b915050610d35565b5081601b5411156110575760405162461bcd60e51b815260206004820152603260248201527f616d6f756e7420616674657220736c6970706167652063616e27742062652067604482015271726561746572207468616e206265666f726560701b6064820152608401610667565b600061106260025490565b111561107d57611076601b54601c54611ea2565b9150611083565b601b5491505b61108d3383611ed8565b604051600090339047908381818185875af1925050503d80600081146110cf576040519150601f19603f3d011682016040523d82523d6000602084013e6110d4565b606091505b50509050806111155760405162461bcd60e51b815260206004820152600d60248201526c1c99599d5b990819985a5b1959609a1b6044820152606401610667565b5050505050565b6005546001600160a01b031633146111465760405162461bcd60e51b81526004016106679061252b565b6111506000611fb7565b565b61115d823383611b0e565b6111678282611d50565b5050565b336000908152602081905260409020548111156111b85760405162461bcd60e51b815260206004820152600b60248201526a6e6f742062616c616e636560a81b6044820152606401610667565b60006111c542600f6125dd565b905060006111d260025490565b90506111de3384611d50565b60005b6011548110156113625760006011828154811061120057611200612560565b60009182526020822001546008546040516370a0823160e01b81526001600160a01b0391821660048201529116925082919082906370a0823190602401602060405180830381865afa15801561125a573d6000803e3d6000fd5b505050506040513d601f19601f8201168201806040525081019061127e9190612576565b9050600061129086610cf2848b611e96565b6008549091506112ac9085906001600160a01b03163084612009565b6006546112c49085906001600160a01b031683612147565b6006546001600160a01b03166318cbafe58260006112e1886117ec565b338c6040518663ffffffff1660e01b81526004016113039594939291906126fe565b6000604051808303816000875af1158015611322573d6000803e3d6000fd5b505050506040513d6000823e601f3d908101601f1916820160405261134a9190810190612640565b5050505050808061135a906125a5565b9150506111e1565b50505050565b6005546001600160a01b031633146113925760405162461bcd60e51b81526004016106679061252b565b601154156113d05760405162461bcd60e51b815260206004820152600b60248201526a125392551250531256915160aa1b6044820152606401610667565b826000805b82811015611613576040805160c0810182526001815264ffffffffff4216602082015290810186868481811061140d5761140d612560565b9050602002016020810190611422919061273a565b6001600160601b0316815260200186868481811061144257611442612560565b9050602002016020810190611457919061273a565b6001600160601b031681526020018260ff16815260200160008152506012600089898581811061148957611489612560565b905060200201602081019061149e919061238b565b6001600160a01b0316815260208082019290925260409081016000208351815493850151928501516060860151608087015165ffffffffffff1990961692151565ffffffffff0019169290921761010064ffffffffff90951694909402939093176601000000000000600160f01b031916600160301b6001600160601b03948516026bffffffffffffffffffffffff60901b191617600160901b93909116929092029190911760ff60f01b1916600160f01b60ff9093169290920291909117815560a090910151600190910155601187878381811061157f5761157f612560565b9050602002016020810190611594919061238b565b81546001810183556000928352602090922090910180546001600160a01b0319166001600160a01b039092169190911790556115ff828686848181106115dc576115dc612560565b90506020020160208101906115f1919061273a565b6001600160601b0316611ab0565b91508061160b816125a5565b9150506113d5565b5060138190556016805460ff191660019081179091556014556040517f183bed17d33ee5be9a47bb997aee6a152d84a34309cdb66f76301de0a40a138990600090a1505050505050565b6060600480546105a2906124f0565b6000338161167a82866118b5565b9050838110156116da5760405162461bcd60e51b815260206004820152602560248201527f45524332303a2064656372656173656420616c6c6f77616e63652062656c6f77604482015264207a65726f60d81b6064820152608401610667565b610a368286868403611978565b600033610633818585611b82565b604080516002808252606080830184529260009291906020830190803683375050600654604080516315ab88c960e31b815290519394506001600160a01b039091169263ad5c4648925060048083019260209291908290030181865afa158015611763573d6000803e3d6000fd5b505050506040513d601f19601f8201168201806040525081019061178791906125c0565b8160008151811061179a5761179a612560565b60200260200101906001600160a01b031690816001600160a01b03168152505082816001815181106117ce576117ce612560565b6001600160a01b039092166020928302919091019091015292915050565b60408051600280825260608083018452926000929190602083019080368337019050509050828160008151811061182557611825612560565b6001600160a01b03928316602091820292909201810191909152600654604080516315ab88c960e31b81529051919093169263ad5c46489260048083019391928290030181865afa15801561187e573d6000803e3d6000fd5b505050506040513d601f19601f820116820180604052508101906118a291906125c0565b816001815181106117ce576117ce612560565b6001600160a01b03918216600090815260016020908152604080832093909416825291909152205490565b6005546001600160a01b0316331461190a5760405162461bcd60e51b81526004016106679061252b565b6001600160a01b03811661196f5760405162461bcd60e51b815260206004820152602660248201527f4f776e61626c653a206e6577206f776e657220697320746865207a65726f206160448201526564647265737360d01b6064820152608401610667565b610a8c81611fb7565b6001600160a01b0383166119da5760405162461bcd60e51b8152602060048201526024808201527f45524332303a20617070726f76652066726f6d20746865207a65726f206164646044820152637265737360e01b6064820152608401610667565b6001600160a01b038216611a3b5760405162461bcd60e51b815260206004820152602260248201527f45524332303a20617070726f766520746f20746865207a65726f206164647265604482015261737360f01b6064820152608401610667565b6001600160a01b0383811660008181526001602090815260408083209487168084529482529182902085905590518481527f8c5be1e5ebec7d5bd14f71427d1e84f3dd0314c0f7b2291e5b200ac8c7c3b92591015b60405180910390a3505050565b6000611aa982846125dd565b9392505050565b600080611abd83856125dd565b905083811015611aa95760405162461bcd60e51b815260206004820152601060248201526f4552525f4144445f4f564552464c4f5760801b6044820152606401610667565b6000611aa98284612763565b6000611b1a84846118b5565b905060001981146113625781811015611b755760405162461bcd60e51b815260206004820152601d60248201527f45524332303a20696e73756666696369656e7420616c6c6f77616e63650000006044820152606401610667565b6113628484848403611978565b6001600160a01b038316611be65760405162461bcd60e51b815260206004820152602560248201527f45524332303a207472616e736665722066726f6d20746865207a65726f206164604482015264647265737360d81b6064820152608401610667565b6001600160a01b038216611c485760405162461bcd60e51b815260206004820152602360248201527f45524332303a207472616e7366657220746f20746865207a65726f206164647260448201526265737360e81b6064820152608401610667565b6001600160a01b03831660009081526020819052604090205481811015611cc05760405162461bcd60e51b815260206004820152602660248201527f45524332303a207472616e7366657220616d6f756e7420657863656564732062604482015265616c616e636560d01b6064820152608401610667565b6001600160a01b03808516600090815260208190526040808220858503905591851681529081208054849290611cf79084906125dd565b92505081905550826001600160a01b0316846001600160a01b03167fddf252ad1be2c89b69c2b068fc378daa952ba7f163c4a11628f55a4df523b3ef84604051611d4391815260200190565b60405180910390a3611362565b6001600160a01b038216611db05760405162461bcd60e51b815260206004820152602160248201527f45524332303a206275726e2066726f6d20746865207a65726f206164647265736044820152607360f81b6064820152608401610667565b6001600160a01b03821660009081526020819052604090205481811015611e245760405162461bcd60e51b815260206004820152602260248201527f45524332303a206275726e20616d6f756e7420657863656564732062616c616e604482015261636560f01b6064820152608401610667565b6001600160a01b0383166000908152602081905260408120838303905560028054849290611e53908490612785565b90915550506040518281526000906001600160a01b038516907fddf252ad1be2c89b69c2b068fc378daa952ba7f163c4a11628f55a4df523b3ef90602001611a90565b6000611aa9828461279c565b600080611eae60025490565b9050611ed083610cf2670de0b6b3a7640000611eca8886611e96565b90611e96565b949350505050565b6001600160a01b038216611f2e5760405162461bcd60e51b815260206004820152601f60248201527f45524332303a206d696e7420746f20746865207a65726f2061646472657373006044820152606401610667565b8060026000828254611f4091906125dd565b90915550506001600160a01b03821660009081526020819052604081208054839290611f6d9084906125dd565b90915550506040518181526001600160a01b038316906000907fddf252ad1be2c89b69c2b068fc378daa952ba7f163c4a11628f55a4df523b3ef9060200160405180910390a35050565b600580546001600160a01b038381166001600160a01b0319831681179093556040519116919082907f8be0079c531659141344cd1fd0a4f28419497f9722a3daafe3b4186f6b6457e090600090a35050565b604080516001600160a01b0385811660248301528481166044830152606480830185905283518084039091018152608490920183526020820180516001600160e01b03166323b872dd60e01b179052915160009283929088169161206d91906127bb565b6000604051808303816000865af19150503d80600081146120aa576040519150601f19603f3d011682016040523d82523d6000602084013e6120af565b606091505b50915091508180156120d95750805115806120d95750808060200190518101906120d991906127d7565b61213f5760405162461bcd60e51b815260206004820152603160248201527f5472616e7366657248656c7065723a3a7472616e7366657246726f6d3a207472604482015270185b9cd9995c919c9bdb4819985a5b1959607a1b6064820152608401610667565b505050505050565b604080516001600160a01b038481166024830152604480830185905283518084039091018152606490920183526020820180516001600160e01b031663095ea7b360e01b17905291516000928392908716916121a391906127bb565b6000604051808303816000865af19150503d80600081146121e0576040519150601f19603f3d011682016040523d82523d6000602084013e6121e5565b606091505b509150915081801561220f57508051158061220f57508080602001905181019061220f91906127d7565b6111155760405162461bcd60e51b815260206004820152602b60248201527f5472616e7366657248656c7065723a3a73616665417070726f76653a2061707060448201526a1c9bdd994819985a5b195960aa1b6064820152608401610667565b60005b8381101561228a578181015183820152602001612272565b838111156113625750506000910152565b60208152600082518060208401526122ba81604085016020870161226f565b601f01601f19169190910160400192915050565b6001600160a01b0381168114610a8c57600080fd5b600080604083850312156122f657600080fd5b8235612301816122ce565b946020939093013593505050565b60008060006060848603121561232457600080fd5b833561232f816122ce565b9250602084013561233f816122ce565b929592945050506040919091013590565b6000806040838503121561236357600080fd5b50508035926020909101359150565b60006020828403121561238457600080fd5b5035919050565b60006020828403121561239d57600080fd5b8135611aa9816122ce565b60008083601f8401126123ba57600080fd5b50813567ffffffffffffffff8111156123d257600080fd5b6020830191508360208260051b85010111156123ed57600080fd5b9250929050565b6000806000806040858703121561240a57600080fd5b843567ffffffffffffffff8082111561242257600080fd5b61242e888389016123a8565b9096509450602087013591508082111561244757600080fd5b50612454878288016123a8565b95989497509550505050565b600081518084526020808501945080840160005b838110156124995781516001600160a01b031687529582019590820190600101612474565b509495945050505050565b602081526000611aa96020830184612460565b600080604083850312156124ca57600080fd5b82356124d5816122ce565b915060208301356124e5816122ce565b809150509250929050565b600181811c9082168061250457607f821691505b6020821081141561252557634e487b7160e01b600052602260045260246000fd5b50919050565b6020808252818101527f4f776e61626c653a2063616c6c6572206973206e6f7420746865206f776e6572604082015260600190565b634e487b7160e01b600052603260045260246000fd5b60006020828403121561258857600080fd5b5051919050565b634e487b7160e01b600052601160045260246000fd5b60006000198214156125b9576125b961258f565b5060010190565b6000602082840312156125d257600080fd5b8151611aa9816122ce565b600082198211156125f0576125f061258f565b500190565b84815260806020820152600061260e6080830186612460565b6001600160a01b03949094166040830152506060015292915050565b634e487b7160e01b600052604160045260246000fd5b6000602080838503121561265357600080fd5b825167ffffffffffffffff8082111561266b57600080fd5b818501915085601f83011261267f57600080fd5b8151818111156126915761269161262a565b8060051b604051601f19603f830116810181811085821117156126b6576126b661262a565b6040529182528482019250838101850191888311156126d457600080fd5b938501935b828510156126f2578451845293850193928501926126d9565b98975050505050505050565b85815284602082015260a06040820152600061271d60a0830186612460565b6001600160a01b0394909416606083015250608001529392505050565b60006020828403121561274c57600080fd5b81356001600160601b0381168114611aa957600080fd5b60008261278057634e487b7160e01b600052601260045260246000fd5b500490565b6000828210156127975761279761258f565b500390565b60008160001904831182151516156127b6576127b661258f565b500290565b600082516127cd81846020870161226f565b9190910192915050565b6000602082840312156127e957600080fd5b81518015158114611aa957600080fdfea26469706673582212207a9ddc7262cf7f63dca1376dda16b8ba119cec72024760887ae883af58bf732e64736f6c634300080a0033",
  "linkReferences": {},
  "deployedLinkReferences": {}
}